S00D0000536C6176652E737265631C
S11300000C942A000C943C000C943C000C943C008E
S11300100C943C000C943C000C943C000C943C006C
S11300200C943C000C943C000C943C000C943C005C
S11300300C945F010C943C000C943C000C943C0028
S11300400C943C000C943C000C943C000C943C003C
S11300500C943C0011241FBECFE5D8E0DEBFCDBF19
S113006020E0A0E6B0E001C01D92A136B207E1F79E
S11300700E9456010C94CE010C940000442319F004
S11300804130C9F10895813091F028F08230D9F0DF
S1130090833029F108952AB381E090E002C0880FEB
S11300A0991F6A95E2F7809582238ABB089527B346
S11300B081E090E002C0880F991F6A95E2F780956D
S11300C0822387BB089524B381E090E002C0880FA7
S11300D0991F6A95E2F78095822384BB089521B322
S11300E081E090E002C0880F991F6A95E2F780953D
S11300F0822381BB0895813089F028F08230C9F0D1
S1130100833011F108952AB381E090E002C0880F92
S1130110991F6A95E2F7822B8ABB089527B381E081
S113012090E002C0880F991F6A95E2F7822B87BB83
S1130130089524B381E090E002C0880F991F6A9566
S1130140E2F7822B84BB089521B381E090E002C0E2
S1130150880F991F6A95E2F7822B81BB0895442387
S113016019F04130C9F10895813091F028F08230BE
S1130170D9F0833029F108952BB381E090E002C0D7
S1130180880F991F6A95E2F7809582238BBB0895A7
S113019028B381E090E002C0880F991F6A95E2F7C6
S11301A08095822388BB089525B381E090E002C046
S11301B0880F991F6A95E2F78095822385BB08957D
S11301C022B381E090E002C0880F991F6A95E2F79C
S11301D08095822382BB0895813089F028F0823093
S11301E0C9F0833011F108952BB381E090E002C08F
S11301F0880F991F6A95E2F7822B8BBB089528B369
S113020081E090E002C0880F991F6A95E2F7822B83
S113021088BB089525B381E090E002C0880F991F40
S11302206A95E2F7822B85BB089522B381E090E0C2
S113023002C0880F991F6A95E2F7822B82BB08954A
S113024041E062E082E00E943E00089541E062E005
S113025082E00E94AF00089540E062E082E00E94E4
S1130260AF00089541E067E082E00E943E000895F7
S113027041E067E082E00E94AF00089540E067E05B
S113028082E00E94AF00089541E063E083E00E94B1
S11302903E00089541E063E083E00E94AF000895CA
S11302A040E063E083E00E94AF0008950E94B6013D
S11302B00E9420010E9432010E944401FFCF1F923C
S11302C00F920FB60F9211242F933F934F935F9386
S11302D06F937F938F939F93AF93BF93EF93FF930A
S11302E00E94CC018093600080916000823691F07E
S11302F08336F1F0813649F50E9426012FEF83ED14
S113030090E3215080409040E1F700C000000E943B
S11303102C011BC00E9438012FEF83ED90E3215084
S113032080409040E1F700C000000E943E010DC0F3
S11303300E944A012FEF83ED90E3215080409040CA
S1130340E1F700C000000E945001FF91EF91BF91BE
S1130350AF919F918F917F916F915F914F913F9159
S11303602F910F900FBE0F901F90189587B38F7D1C
S113037087BB87B3806487BB87B38F7787BB87B31B
S11303808F7E87BB78948DB180688DB98DB1806480
S11303908DB983EC8DB908958FB10895F894FFCF8A
S9030000FC
